:100000000C9434000C9451000C9451000C94530047
:100010000C9451000C9451000C9451000C9451001C
:100020000C9451000C9451000C9451000C9451000C
:100030000C9451000C9451000C9451000C945100FC
:100040000C9451000C9451000C9451000C945100EC
:100050000C9451000C9451000C9451000C945100DC
:100060000C9451000C94510011241FBECFEFD8E026
:10007000DEBFCDBF11E0A0E0B1E0E2E1F2E002C0FE
:1000800005900D92AC30B107D9F721E0ACE0B1E0BA
:1000900001C01D92AD30B207E1F70E9469000C94D7
:1000A00007010C9400001F921FB61F9211248F931A
:1000B000189B06C080910C01882339F010920C0126
:1000C0008F911F901FBE1F90189581E080930C01A7
:1000D000F7CF84B18E6384B9209828988091680006
:1000E00081608093680080916B00816080936B00D9
:1000F000789421E030E080910C01882309F460C0FD
:100100008091000190910101AC014F5F5F4F5093CE
:1001100001014093000101968530910584F14FEF74
:1001200089E698E1415080409040E1F700C000002E
:1001300080910001909101018530910584F14FEF8C
:100140008BE792E9415080409040E1F700C0000009
:1001500085B1E0910001F0910101EE0FFF1FEE5F0C
:10016000FE4FA901008002C0440F551F0A94E2F718
:10017000842785B91D9BBFCF10920C01BCCF45B120
:10018000FC01EE0FFF1FEE5FFE4FB901008002C0C1
:10019000660F771F0A94E2F7462745B9BCCF45B1F1
:1001A000FC01EE0FFF1FEE5FFE4FB901008002C0A1
:1001B000660F771F0A94E2F7462745B90196BCCF30
:1001C000199B99CF4FEF83E294EF415080409040CC
:1001D000E1F700C0000085B1E0910001F09101015C
:1001E000EE0FFF1FEE5FFE4FA901008002C0440F1B
:1001F000551F0A94E2F7842785B9809100019091F8
:1002000001010197909301018093000174CFF8944C
:02021000FFCF1E
:0C021200FFFF01000200030004000500D3
:00000001FF
